{
  "_format": "hh-sol-artifact-1",
  "contractName": "AlphaAIManager",
  "sourceName": "contracts/AlphaAIManager.sol",
  "abi": [
    {
      "inputs": [],
      "stateMutability": "nonpayable",
      "type": "constructor"
    },
    {
      "anonymous": false,
      "inputs": [
        {
          "indexed": true,
          "internalType": "address",
          "name": "investor",
          "type": "address"
        },
        {
          "indexed": false,
          "internalType": "uint256",
          "name": "amount",
          "type": "uint256"
        }
      ],
      "name": "InvestorDeposited",
      "type": "event"
    },
    {
      "anonymous": false,
      "inputs": [
        {
          "indexed": true,
          "internalType": "address",
          "name": "investor",
          "type": "address"
        },
        {
          "indexed": false,
          "internalType": "uint256",
          "name": "amount",
          "type": "uint256"
        }
      ],
      "name": "InvestorWithdrawn",
      "type": "event"
    },
    {
      "anonymous": false,
      "inputs": [
        {
          "indexed": true,
          "internalType": "uint256",
          "name": "strategyId",
          "type": "uint256"
        },
        {
          "indexed": false,
          "internalType": "string",
          "name": "name",
          "type": "string"
        }
      ],
      "name": "StrategyAdded",
      "type": "event"
    },
    {
      "anonymous": false,
      "inputs": [
        {
          "indexed": true,
          "internalType": "uint256",
          "name": "strategyId",
          "type": "uint256"
        },
        {
          "indexed": false,
          "internalType": "uint256",
          "name": "amount",
          "type": "uint256"
        }
      ],
      "name": "StrategyAllocated",
      "type": "event"
    },
    {
      "anonymous": false,
      "inputs": [
        {
          "indexed": true,
          "internalType": "uint256",
          "name": "strategyId",
          "type": "uint256"
        },
        {
          "indexed": false,
          "internalType": "uint256",
          "name": "amount",
          "type": "uint256"
        }
      ],
      "name": "StrategyDeallocated",
      "type": "event"
    },
    {
      "inputs": [
        {
          "internalType": "string",
          "name": "name",
          "type": "string"
        }
      ],
      "name": "addStrategy",
      "outputs": [],
      "stateMutability": "nonpayable",
      "type": "function"
    },
    {
      "inputs": [
        {
          "internalType": "uint256",
          "name": "strategyId",
          "type": "uint256"
        },
        {
          "internalType": "uint256",
          "name": "amount",
          "type": "uint256"
        }
      ],
      "name": "allocateToStrategy",
      "outputs": [],
      "stateMutability": "nonpayable",
      "type": "function"
    },
    {
      "inputs": [
        {
          "internalType": "uint256",
          "name": "strategyId",
          "type": "uint256"
        },
        {
          "internalType": "uint256",
          "name": "amount",
          "type": "uint256"
        }
      ],
      "name": "deallocateFromStrategy",
      "outputs": [],
      "stateMutability": "nonpayable",
      "type": "function"
    },
    {
      "inputs": [],
      "name": "deposit",
      "outputs": [],
      "stateMutability": "payable",
      "type": "function"
    },
    {
      "inputs": [],
      "name": "emergencyWithdraw",
      "outputs": [],
      "stateMutability": "nonpayable",
      "type": "function"
    },
    {
      "inputs": [
        {
          "internalType": "address",
          "name": "investor",
          "type": "address"
        }
      ],
      "name": "getInvestorBalance",
      "outputs": [
        {
          "internalType": "uint256",
          "name": "",
          "type": "uint256"
        }
      ],
      "stateMutability": "view",
      "type": "function"
    },
    {
      "inputs": [
        {
          "internalType": "uint256",
          "name": "strategyId",
          "type": "uint256"
        }
      ],
      "name": "getStrategy",
      "outputs": [
        {
          "internalType": "string",
          "name": "",
          "type": "string"
        },
        {
          "internalType": "uint256",
          "name": "",
          "type": "uint256"
        },
        {
          "internalType": "bool",
          "name": "",
          "type": "bool"
        }
      ],
      "stateMutability": "view",
      "type": "function"
    },
    {
      "inputs": [
        {
          "internalType": "address",
          "name": "",
          "type": "address"
        }
      ],
      "name": "investors",
      "outputs": [
        {
          "internalType": "uint256",
          "name": "balance",
          "type": "uint256"
        },
        {
          "internalType": "bool",
          "name": "active",
          "type": "bool"
        }
      ],
      "stateMutability": "view",
      "type": "function"
    },
    {
      "inputs": [],
      "name": "owner",
      "outputs": [
        {
          "internalType": "address",
          "name": "",
          "type": "address"
        }
      ],
      "stateMutability": "view",
      "type": "function"
    },
    {
      "inputs": [
        {
          "internalType": "uint256",
          "name": "",
          "type": "uint256"
        }
      ],
      "name": "strategies",
      "outputs": [
        {
          "internalType": "string",
          "name": "name",
          "type": "string"
        },
        {
          "internalType": "uint256",
          "name": "allocated",
          "type": "uint256"
        },
        {
          "internalType": "bool",
          "name": "active",
          "type": "bool"
        }
      ],
      "stateMutability": "view",
      "type": "function"
    },
    {
      "inputs": [],
      "name": "strategyCount",
      "outputs": [
        {
          "internalType": "uint256",
          "name": "",
          "type": "uint256"
        }
      ],
      "stateMutability": "view",
      "type": "function"
    },
    {
      "inputs": [
        {
          "internalType": "uint256",
          "name": "amount",
          "type": "uint256"
        }
      ],
      "name": "withdraw",
      "outputs": [],
      "stateMutability": "nonpayable",
      "type": "function"
    }
  ],
  "bytecode": "0x608060405234801561001057600080fd5b50600080546001600160a01b03191633179055610c35806100326000396000f3fe6080604052600436106100a75760003560e01c8063cda9d63a11610064578063cda9d63a146101d1578063cfc0cc34146101f1578063d0e30db014610220578063d574ea3d14610228578063db2e21bc14610248578063dcc6e72e1461025d57600080fd5b806322068b44146100ac5780632e1a7d4d146100d55780635ea63913146100f75780636f7bc9be1461012d5780638da5cb5b14610179578063c98db579146101b1575b600080fd5b3480156100b857600080fd5b506100c260035481565b6040519081526020015b60405180910390f35b3480156100e157600080fd5b506100f56100f03660046108b3565b61027d565b005b34801561010357600080fd5b506100c26101123660046108cc565b6001600160a01b031660009081526001602052604090205490565b34801561013957600080fd5b506101646101483660046108cc565b6001602081905260009182526040909120805491015460ff1682565b604080519283529015156020830152016100cc565b34801561018557600080fd5b50600054610199906001600160a01b031681565b6040516001600160a01b0390911681526020016100cc565b3480156101bd57600080fd5b506100f56101cc3660046108fc565b61036f565b3480156101dd57600080fd5b506100f56101ec36600461091e565b610447565b3480156101fd57600080fd5b5061021161020c3660046108b3565b610556565b6040516100cc93929190610990565b6100f5610619565b34801561023457600080fd5b506102116102433660046108b3565b6106d0565b34801561025457600080fd5b506100f561077e565b34801561026957600080fd5b506100f56102783660046108fc565b6107e5565b33600090815260016020526040902080548211156102d95760405162461bcd60e51b8152602060048201526014602482015273496e73756666696369656e742062616c616e636560601b60448201526064015b60405180910390fd5b818160000160008282546102ed9190610a04565b909155505080546000036103085760018101805460ff191690555b604051339083156108fc029084906000818181858888f19350505050158015610335573d6000803e3d6000fd5b5060405182815233907f3352c11f42d0e000833029ceed51a96f8dc31113c20eadbd28e72b72d5f6e3d59060200160405180910390a25050565b6000546001600160a01b031633146103995760405162461bcd60e51b81526004016102d090610a1d565b60008281526002602081905260409091209081015460ff166103f35760405162461bcd60e51b81526020600482015260136024820152725374726174656779206e6f742061637469766560681b60448201526064016102d0565b818160010160008282546104079190610a45565b909155505060405182815283907ff386a2f2caffbe2c8bedaa3b94c0becd576982a9930b942d35919c96d5f274e1906020015b60405180910390a2505050565b6000546001600160a01b031633146104715760405162461bcd60e51b81526004016102d090610a1d565b604051806060016040528083838080601f01602080910402602001604051908101604052809392919081815260200183838082843760009201829052509385525050506020808301829052600160409384015260035482526002905220815181906104dc9082610af7565b50602082015160018201556040918201516002909101805460ff191691151591909117905560035490517f7669d2328717ffda0d0e7e68960ff1e5ffee66f90e78304476acbb0da41a3f03906105359085908590610bb7565b60405180910390a26003805490600061054d83610be6565b91905055505050565b60008181526002602081905260408220600181015491810154815460609493849392839260ff90911690839061058b90610a6e565b80601f01602080910402602001604051908101604052809291908181526020018280546105b790610a6e565b80156106045780601f106105d957610100808354040283529160200191610604565b820191906000526020600020905b8154815290600101906020018083116105e757829003601f168201915b50505050509250935093509350509193909250565b600034116106605760405162461bcd60e51b815260206004820152601460248201527311195c1bdcda5d080f880c081c995c5d5a5c995960621b60448201526064016102d0565b336000908152600160205260408120805490913491839190610683908490610a45565b90915550506001818101805460ff1916909117905560405134815233907fc00ca83e08bb02235508ecacfa2bcb1c4084793b3025932556ee58763fd643ce9060200160405180910390a250565b6002602052600090815260409020805481906106eb90610a6e565b80601f016020809104026020016040519081016040528092919081815260200182805461071790610a6e565b80156107645780601f1061073957610100808354040283529160200191610764565b820191906000526020600020905b81548152906001019060200180831161074757829003601f168201915b50505050600183015460029093015491929160ff16905083565b6000546001600160a01b031633146107a85760405162461bcd60e51b81526004016102d090610a1d565b600080546040516001600160a01b03909116914780156108fc02929091818181858888f193505050501580156107e2573d6000803e3d6000fd5b50565b6000546001600160a01b0316331461080f5760405162461bcd60e51b81526004016102d090610a1d565b600082815260026020526040902060018101548211156108685760405162461bcd60e51b8152602060048201526014602482015273139bdd08195b9bdd59da08185b1b1bd8d85d195960621b60448201526064016102d0565b8181600101600082825461087c9190610a04565b909155505060405182815283907f902770f809897afba66516a03ec7b56cf0bf9b30375704a03d2506fa9ff658a09060200161043a565b6000602082840312156108c557600080fd5b5035919050565b6000602082840312156108de57600080fd5b81356001600160a01b03811681146108f557600080fd5b9392505050565b6000806040838503121561090f57600080fd5b50508035926020909101359150565b6000806020838503121561093157600080fd5b823567ffffffffffffffff8082111561094957600080fd5b818501915085601f83011261095d57600080fd5b81358181111561096c57600080fd5b86602082850101111561097e57600080fd5b60209290920196919550909350505050565b606081526000845180606084015260005b818110156109be57602081880181015160808684010152016109a1565b506000608082850101526080601f19601f8301168401019150508360208301528215156040830152949350505050565b634e487b7160e01b600052601160045260246000fd5b81810381811115610a1757610a176109ee565b92915050565b6020808252600e908201526d139bdd08185d5d1a1bdc9a5e995960921b604082015260600190565b80820180821115610a1757610a176109ee565b634e487b7160e01b600052604160045260246000fd5b600181811c90821680610a8257607f821691505b602082108103610aa257634e487b7160e01b600052602260045260246000fd5b50919050565b601f821115610af257600081815260208120601f850160051c81016020861015610acf5750805b601f850160051c820191505b81811015610aee57828155600101610adb565b5050505b505050565b815167ffffffffffffffff811115610b1157610b11610a58565b610b2581610b1f8454610a6e565b84610aa8565b602080601f831160018114610b5a5760008415610b425750858301515b600019600386901b1c1916600185901b178555610aee565b600085815260208120601f198616915b82811015610b8957888601518255948401946001909101908401610b6a565b5085821015610ba75787850151600019600388901b60f8161c191681555b5050505050600190811b01905550565b60208152816020820152818360408301376000818301604090810191909152601f909201601f19160101919050565b600060018201610bf857610bf86109ee565b506001019056fea26469706673582212205ff2bba617fccc4dac1f64222f0dc0851550f12532b874e6f1aa742071e7c46064736f6c63430008140033",
  "linkReferences": {},
  "deployedLinkReferences": {}
}