{
  "_format": "hh-sol-artifact-1",
  "contractName": "AlphaAIManager",
  "sourceName": "contracts/AlphaAIManager.sol",
  "abi": [
    {
      "inputs": [],
      "stateMutability": "nonpayable",
      "type": "constructor"
    },
    {
      "anonymous": false,
      "inputs": [
        {
          "indexed": true,
          "internalType": "address",
          "name": "investor",
          "type": "address"
        },
        {
          "indexed": false,
          "internalType": "uint256",
          "name": "amount",
          "type": "uint256"
        }
      ],
      "name": "InvestorDeposited",
      "type": "event"
    },
    {
      "anonymous": false,
      "inputs": [
        {
          "indexed": true,
          "internalType": "address",
          "name": "investor",
          "type": "address"
        },
        {
          "indexed": false,
          "internalType": "uint256",
          "name": "amount",
          "type": "uint256"
        }
      ],
      "name": "InvestorWithdrawn",
      "type": "event"
    },
    {
      "anonymous": false,
      "inputs": [
        {
          "indexed": true,
          "internalType": "uint256",
          "name": "strategyId",
          "type": "uint256"
        },
        {
          "indexed": false,
          "internalType": "string",
          "name": "name",
          "type": "string"
        }
      ],
      "name": "StrategyAdded",
      "type": "event"
    },
    {
      "anonymous": false,
      "inputs": [
        {
          "indexed": true,
          "internalType": "uint256",
          "name": "strategyId",
          "type": "uint256"
        },
        {
          "indexed": false,
          "internalType": "uint256",
          "name": "amount",
          "type": "uint256"
        }
      ],
      "name": "StrategyAllocated",
      "type": "event"
    },
    {
      "anonymous": false,
      "inputs": [
        {
          "indexed": true,
          "internalType": "uint256",
          "name": "strategyId",
          "type": "uint256"
        },
        {
          "indexed": false,
          "internalType": "uint256",
          "name": "amount",
          "type": "uint256"
        }
      ],
      "name": "StrategyDeallocated",
      "type": "event"
    },
    {
      "anonymous": false,
      "inputs": [
        {
          "indexed": true,
          "internalType": "uint256",
          "name": "strategyId",
          "type": "uint256"
        },
        {
          "indexed": false,
          "internalType": "int256",
          "name": "sharpe",
          "type": "int256"
        },
        {
          "indexed": false,
          "internalType": "uint256",
          "name": "winRate",
          "type": "uint256"
        },
        {
          "indexed": false,
          "internalType": "uint256",
          "name": "drawdown",
          "type": "uint256"
        },
        {
          "indexed": false,
          "internalType": "int256",
          "name": "monthlyPnl",
          "type": "int256"
        },
        {
          "indexed": false,
          "internalType": "uint256",
          "name": "timestamp",
          "type": "uint256"
        }
      ],
      "name": "StrategyPerformanceUpdated",
      "type": "event"
    },
    {
      "inputs": [
        {
          "internalType": "string",
          "name": "name",
          "type": "string"
        }
      ],
      "name": "addStrategy",
      "outputs": [],
      "stateMutability": "nonpayable",
      "type": "function"
    },
    {
      "inputs": [
        {
          "internalType": "uint256",
          "name": "strategyId",
          "type": "uint256"
        },
        {
          "internalType": "uint256",
          "name": "amount",
          "type": "uint256"
        }
      ],
      "name": "allocateToStrategy",
      "outputs": [],
      "stateMutability": "nonpayable",
      "type": "function"
    },
    {
      "inputs": [],
      "name": "contractVersion",
      "outputs": [
        {
          "internalType": "string",
          "name": "",
          "type": "string"
        }
      ],
      "stateMutability": "pure",
      "type": "function"
    },
    {
      "inputs": [
        {
          "internalType": "uint256",
          "name": "strategyId",
          "type": "uint256"
        },
        {
          "internalType": "uint256",
          "name": "amount",
          "type": "uint256"
        }
      ],
      "name": "deallocateFromStrategy",
      "outputs": [],
      "stateMutability": "nonpayable",
      "type": "function"
    },
    {
      "inputs": [],
      "name": "deposit",
      "outputs": [],
      "stateMutability": "payable",
      "type": "function"
    },
    {
      "inputs": [],
      "name": "emergencyWithdraw",
      "outputs": [],
      "stateMutability": "nonpayable",
      "type": "function"
    },
    {
      "inputs": [
        {
          "internalType": "address",
          "name": "investor",
          "type": "address"
        }
      ],
      "name": "getInvestorBalance",
      "outputs": [
        {
          "internalType": "uint256",
          "name": "",
          "type": "uint256"
        }
      ],
      "stateMutability": "view",
      "type": "function"
    },
    {
      "inputs": [
        {
          "internalType": "uint256",
          "name": "strategyId",
          "type": "uint256"
        }
      ],
      "name": "getStrategy",
      "outputs": [
        {
          "internalType": "string",
          "name": "",
          "type": "string"
        },
        {
          "internalType": "uint256",
          "name": "",
          "type": "uint256"
        },
        {
          "internalType": "bool",
          "name": "",
          "type": "bool"
        }
      ],
      "stateMutability": "view",
      "type": "function"
    },
    {
      "inputs": [
        {
          "internalType": "uint256",
          "name": "strategyId",
          "type": "uint256"
        }
      ],
      "name": "getStrategyPerformance",
      "outputs": [
        {
          "components": [
            {
              "internalType": "int256",
              "name": "sharpe",
              "type": "int256"
            },
            {
              "internalType": "uint256",
              "name": "winRate",
              "type": "uint256"
            },
            {
              "internalType": "uint256",
              "name": "drawdown",
              "type": "uint256"
            },
            {
              "internalType": "int256",
              "name": "monthlyPnl",
              "type": "int256"
            },
            {
              "internalType": "uint256",
              "name": "timestamp",
              "type": "uint256"
            }
          ],
          "internalType": "struct AlphaAIManager.StrategyPerformance",
          "name": "",
          "type": "tuple"
        }
      ],
      "stateMutability": "view",
      "type": "function"
    },
    {
      "inputs": [
        {
          "internalType": "address",
          "name": "",
          "type": "address"
        }
      ],
      "name": "investors",
      "outputs": [
        {
          "internalType": "uint256",
          "name": "balance",
          "type": "uint256"
        },
        {
          "internalType": "bool",
          "name": "active",
          "type": "bool"
        }
      ],
      "stateMutability": "view",
      "type": "function"
    },
    {
      "inputs": [],
      "name": "owner",
      "outputs": [
        {
          "internalType": "address",
          "name": "",
          "type": "address"
        }
      ],
      "stateMutability": "view",
      "type": "function"
    },
    {
      "inputs": [
        {
          "internalType": "uint256",
          "name": "",
          "type": "uint256"
        }
      ],
      "name": "performance",
      "outputs": [
        {
          "internalType": "int256",
          "name": "sharpe",
          "type": "int256"
        },
        {
          "internalType": "uint256",
          "name": "winRate",
          "type": "uint256"
        },
        {
          "internalType": "uint256",
          "name": "drawdown",
          "type": "uint256"
        },
        {
          "internalType": "int256",
          "name": "monthlyPnl",
          "type": "int256"
        },
        {
          "internalType": "uint256",
          "name": "timestamp",
          "type": "uint256"
        }
      ],
      "stateMutability": "view",
      "type": "function"
    },
    {
      "inputs": [
        {
          "internalType": "uint256",
          "name": "",
          "type": "uint256"
        }
      ],
      "name": "strategies",
      "outputs": [
        {
          "internalType": "string",
          "name": "name",
          "type": "string"
        },
        {
          "internalType": "uint256",
          "name": "allocated",
          "type": "uint256"
        },
        {
          "internalType": "bool",
          "name": "active",
          "type": "bool"
        }
      ],
      "stateMutability": "view",
      "type": "function"
    },
    {
      "inputs": [],
      "name": "strategyCount",
      "outputs": [
        {
          "internalType": "uint256",
          "name": "",
          "type": "uint256"
        }
      ],
      "stateMutability": "view",
      "type": "function"
    },
    {
      "inputs": [
        {
          "internalType": "uint256",
          "name": "strategyId",
          "type": "uint256"
        },
        {
          "internalType": "int256",
          "name": "sharpe",
          "type": "int256"
        },
        {
          "internalType": "uint256",
          "name": "winRate",
          "type": "uint256"
        },
        {
          "internalType": "uint256",
          "name": "drawdown",
          "type": "uint256"
        },
        {
          "internalType": "int256",
          "name": "monthlyPnl",
          "type": "int256"
        },
        {
          "internalType": "uint256",
          "name": "timestamp",
          "type": "uint256"
        }
      ],
      "name": "updateStrategyPerformance",
      "outputs": [],
      "stateMutability": "nonpayable",
      "type": "function"
    },
    {
      "inputs": [
        {
          "internalType": "uint256",
          "name": "amount",
          "type": "uint256"
        }
      ],
      "name": "withdraw",
      "outputs": [],
      "stateMutability": "nonpayable",
      "type": "function"
    }
  ],
  "bytecode": "0x608060405234801561001057600080fd5b50600080546001600160a01b03191633179055610f92806100326000396000f3fe6080604052600436106100f35760003560e01c8063c98db5791161008a578063d574ea3d11610059578063d574ea3d14610342578063db2e21bc14610362578063dcc6e72e14610377578063f18783771461039757600080fd5b8063c98db579146102cb578063cda9d63a146102eb578063cfc0cc341461030b578063d0e30db01461033a57600080fd5b80636b844f2a116100c65780636b844f2a146101995780636f7bc9be146101fb5780638da5cb5b14610247578063a0a8e4601461027f57600080fd5b806322068b44146100f85780632e1a7d4d146101215780635e91e51d146101435780635ea6391314610163575b600080fd5b34801561010457600080fd5b5061010e60045481565b6040519081526020015b60405180910390f35b34801561012d57600080fd5b5061014161013c366004610ba8565b61040a565b005b34801561014f57600080fd5b5061014161015e366004610bc1565b6104fc565b34801561016f57600080fd5b5061010e61017e366004610c04565b6001600160a01b031660009081526001602052604090205490565b3480156101a557600080fd5b506101b96101b4366004610ba8565b6105e4565b6040516101189190600060a082019050825182526020830151602083015260408301516040830152606083015160608301526080830151608083015292915050565b34801561020757600080fd5b50610232610216366004610c04565b6001602081905260009182526040909120805491015460ff1682565b60408051928352901515602083015201610118565b34801561025357600080fd5b50600054610267906001600160a01b031681565b6040516001600160a01b039091168152602001610118565b34801561028b57600080fd5b50604080518082018252601b81527f322e302d706572666f726d616e63652d6174746573746174696f6e0000000000602082015290516101189190610c7a565b3480156102d757600080fd5b506101416102e6366004610c8d565b610664565b3480156102f757600080fd5b50610141610306366004610caf565b61073c565b34801561031757600080fd5b5061032b610326366004610ba8565b61084b565b60405161011893929190610d21565b61014161090e565b34801561034e57600080fd5b5061032b61035d366004610ba8565b6109c5565b34801561036e57600080fd5b50610141610a73565b34801561038357600080fd5b50610141610392366004610c8d565b610ada565b3480156103a357600080fd5b506103e26103b2366004610ba8565b60036020819052600091825260409091208054600182015460028301549383015460049093015491939092909185565b604080519586526020860194909452928401919091526060830152608082015260a001610118565b33600090815260016020526040902080548211156104665760405162461bcd60e51b8152602060048201526014602482015273496e73756666696369656e742062616c616e636560601b60448201526064015b60405180910390fd5b8181600001600082825461047a9190610d61565b909155505080546000036104955760018101805460ff191690555b604051339083156108fc029084906000818181858888f193505050501580156104c2573d6000803e3d6000fd5b5060405182815233907f3352c11f42d0e000833029ceed51a96f8dc31113c20eadbd28e72b72d5f6e3d59060200160405180910390a25050565b6000546001600160a01b031633146105265760405162461bcd60e51b815260040161045d90610d7a565b6040805160a0810182528681526020808201878152828401878152606084018781526080850187815260008d81526003958690528790209551865592516001860155905160028501555191830191909155516004909101555186907f116be5816fb03c635c33532d091d2d45e983c747b8281784478b397d29d14434906105d49088908890889088908890948552602085019390935260408401919091526060830152608082015260a00190565b60405180910390a2505050505050565b6106166040518060a0016040528060008152602001600081526020016000815260200160008152602001600081525090565b50600090815260036020818152604092839020835160a08101855281548152600182015492810192909252600281015493820193909352908201546060820152600490910154608082015290565b6000546001600160a01b0316331461068e5760405162461bcd60e51b815260040161045d90610d7a565b60008281526002602081905260409091209081015460ff166106e85760405162461bcd60e51b81526020600482015260136024820152725374726174656779206e6f742061637469766560681b604482015260640161045d565b818160010160008282546106fc9190610da2565b909155505060405182815283907ff386a2f2caffbe2c8bedaa3b94c0becd576982a9930b942d35919c96d5f274e1906020015b60405180910390a2505050565b6000546001600160a01b031633146107665760405162461bcd60e51b815260040161045d90610d7a565b604051806060016040528083838080601f01602080910402602001604051908101604052809392919081815260200183838082843760009201829052509385525050506020808301829052600160409384015260045482526002905220815181906107d19082610e54565b50602082015160018201556040918201516002909101805460ff191691151591909117905560045490517f7669d2328717ffda0d0e7e68960ff1e5ffee66f90e78304476acbb0da41a3f039061082a9085908590610f14565b60405180910390a26004805490600061084283610f43565b91905055505050565b60008181526002602081905260408220600181015491810154815460609493849392839260ff90911690839061088090610dcb565b80601f01602080910402602001604051908101604052809291908181526020018280546108ac90610dcb565b80156108f95780601f106108ce576101008083540402835291602001916108f9565b820191906000526020600020905b8154815290600101906020018083116108dc57829003601f168201915b50505050509250935093509350509193909250565b600034116109555760405162461bcd60e51b815260206004820152601460248201527311195c1bdcda5d080f880c081c995c5d5a5c995960621b604482015260640161045d565b336000908152600160205260408120805490913491839190610978908490610da2565b90915550506001818101805460ff1916909117905560405134815233907fc00ca83e08bb02235508ecacfa2bcb1c4084793b3025932556ee58763fd643ce9060200160405180910390a250565b6002602052600090815260409020805481906109e090610dcb565b80601f0160208091040260200160405190810160405280929190818152602001828054610a0c90610dcb565b8015610a595780601f10610a2e57610100808354040283529160200191610a59565b820191906000526020600020905b815481529060010190602001808311610a3c57829003601f168201915b50505050600183015460029093015491929160ff16905083565b6000546001600160a01b03163314610a9d5760405162461bcd60e51b815260040161045d90610d7a565b600080546040516001600160a01b03909116914780156108fc02929091818181858888f19350505050158015610ad7573d6000803e3d6000fd5b50565b6000546001600160a01b03163314610b045760405162461bcd60e51b815260040161045d90610d7a565b60008281526002602052604090206001810154821115610b5d5760405162461bcd60e51b8152602060048201526014602482015273139bdd08195b9bdd59da08185b1b1bd8d85d195960621b604482015260640161045d565b81816001016000828254610b719190610d61565b909155505060405182815283907f902770f809897afba66516a03ec7b56cf0bf9b30375704a03d2506fa9ff658a09060200161072f565b600060208284031215610bba57600080fd5b5035919050565b60008060008060008060c08789031215610bda57600080fd5b505084359660208601359650604086013595606081013595506080810135945060a0013592509050565b600060208284031215610c1657600080fd5b81356001600160a01b0381168114610c2d57600080fd5b9392505050565b6000815180845260005b81811015610c5a57602081850181015186830182015201610c3e565b506000602082860101526020601f19601f83011685010191505092915050565b602081526000610c2d6020830184610c34565b60008060408385031215610ca057600080fd5b50508035926020909101359150565b60008060208385031215610cc257600080fd5b823567ffffffffffffffff80821115610cda57600080fd5b818501915085601f830112610cee57600080fd5b813581811115610cfd57600080fd5b866020828501011115610d0f57600080fd5b60209290920196919550909350505050565b606081526000610d346060830186610c34565b602083019490945250901515604090910152919050565b634e487b7160e01b600052601160045260246000fd5b81810381811115610d7457610d74610d4b565b92915050565b6020808252600e908201526d139bdd08185d5d1a1bdc9a5e995960921b604082015260600190565b80820180821115610d7457610d74610d4b565b634e487b7160e01b600052604160045260246000fd5b600181811c90821680610ddf57607f821691505b602082108103610dff57634e487b7160e01b600052602260045260246000fd5b50919050565b601f821115610e4f57600081815260208120601f850160051c81016020861015610e2c5750805b601f850160051c820191505b81811015610e4b57828155600101610e38565b5050505b505050565b815167ffffffffffffffff811115610e6e57610e6e610db5565b610e8281610e7c8454610dcb565b84610e05565b602080601f831160018114610eb75760008415610e9f5750858301515b600019600386901b1c1916600185901b178555610e4b565b600085815260208120601f198616915b82811015610ee657888601518255948401946001909101908401610ec7565b5085821015610f045787850151600019600388901b60f8161c191681555b5050505050600190811b01905550565b60208152816020820152818360408301376000818301604090810191909152601f909201601f19160101919050565b600060018201610f5557610f55610d4b565b506001019056fea2646970667358221220b3d55793647465383e4e2e4c99763bfb1a7945c157e7ad78fa1d520124fd900364736f6c63430008140033",
  "linkReferences": {},
  "deployedLinkReferences": {}
}